{
  "contractName": "Crud",
  "abi": [
    {
      "anonymous": false,
      "inputs": [
        {
          "indexed": false,
          "internalType": "string",
          "name": "_message",
          "type": "string"
        }
      ],
      "name": "UserEvent",
      "type": "event"
    },
    {
      "constant": true,
      "inputs": [],
      "name": "nextId",
      "outputs": [
        {
          "internalType": "uint256",
          "name": "",
          "type": "uint256"
        }
      ],
      "payable": false,
      "stateMutability": "view",
      "type": "function"
    },
    {
      "constant": true,
      "inputs": [
        {
          "internalType": "uint256",
          "name": "",
          "type": "uint256"
        }
      ],
      "name": "users",
      "outputs": [
        {
          "internalType": "uint256",
          "name": "id",
          "type": "uint256"
        },
        {
          "internalType": "string",
          "name": "name",
          "type": "string"
        }
      ],
      "payable": false,
      "stateMutability": "view",
      "type": "function"
    },
    {
      "constant": true,
      "inputs": [],
      "name": "getAllUsers",
      "outputs": [
        {
          "internalType": "string",
          "name": "",
          "type": "string"
        }
      ],
      "payable": false,
      "stateMutability": "view",
      "type": "function"
    },
    {
      "constant": false,
      "inputs": [
        {
          "internalType": "string",
          "name": "name",
          "type": "string"
        }
      ],
      "name": "create",
      "outputs": [],
      "payable": false,
      "stateMutability": "nonpayable",
      "type": "function"
    },
    {
      "constant": true,
      "inputs": [
        {
          "internalType": "uint256",
          "name": "id",
          "type": "uint256"
        }
      ],
      "name": "read",
      "outputs": [
        {
          "internalType": "uint256",
          "name": "",
          "type": "uint256"
        },
        {
          "internalType": "string",
          "name": "",
          "type": "string"
        }
      ],
      "payable": false,
      "stateMutability": "view",
      "type": "function"
    },
    {
      "constant": false,
      "inputs": [
        {
          "internalType": "uint256",
          "name": "id",
          "type": "uint256"
        },
        {
          "internalType": "string",
          "name": "name",
          "type": "string"
        }
      ],
      "name": "update",
      "outputs": [],
      "payable": false,
      "stateMutability": "nonpayable",
      "type": "function"
    },
    {
      "constant": false,
      "inputs": [
        {
          "internalType": "uint256",
          "name": "id",
          "type": "uint256"
        }
      ],
      "name": "destroy",
      "outputs": [],
      "payable": false,
      "stateMutability": "nonpayable",
      "type": "function"
    }
  ],
  "bytecode": "0x60806040526001805534801561001457600080fd5b50610c1d806100246000396000f3fe608060405234801561001057600080fd5b506004361061007d5760003560e01c8063b6a46b3b1161005b578063b6a46b3b146100ed578063e2842d7914610109578063ed2e5a9714610127578063f745630f146101585761007d565b8063365b98b21461008257806361b8ce8c146100b35780639d118770146100d1575b600080fd5b61009c600480360361009791908101906107cb565b610174565b6040516100aa929190610a86565b60405180910390f35b6100bb61023d565b6040516100c89190610a6b565b60405180910390f35b6100eb60048036036100e691908101906107cb565b610243565b005b6101076004803603610102919081019061078a565b6102bf565b005b610111610377565b60405161011e91906109c9565b60405180910390f35b610141600480360361013c91908101906107cb565b6103b4565b60405161014f929190610ab6565b60405180910390f35b610172600480360361016d91908101906107f4565b6104a8565b005b6000818154811061018157fe5b9060005260206000209060020201600091509050806000015490806001018054600181600116156101000203166002900480601f0160208091040260200160405190810160405280929190818152602001828054600181600116156101000203166002900480156102335780601f1061020857610100808354040283529160200191610233565b820191906000526020600020905b81548152906001019060200180831161021657829003601f168201915b5050505050905082565b60015481565b600061024e82610522565b90506000818154811061025d57fe5b906000526020600020906002020160008082016000905560018201600061028491906105b4565b50507fdf9ab33a468c78651dd860c5146e077928aad7deca2b2e4f868b28e5f4b3ef5f6040516102b390610a4b565b60405180910390a15050565b60006040518060400160405280600154815260200183815250908060018154018082558091505090600182039060005260206000209060020201600090919290919091506000820151816000015560208201518160010190805190602001906103299291906105fc565b505050506001600081548092919060010191905055507fdf9ab33a468c78651dd860c5146e077928aad7deca2b2e4f868b28e5f4b3ef5f60405161036c90610a0b565b60405180910390a150565b60606040518060400160405280600581526020017f68656c6c6f000000000000000000000000000000000000000000000000000000815250905090565b6000606060006103c384610522565b9050600081815481106103d257fe5b906000526020600020906002020160000154600082815481106103f157fe5b9060005260206000209060020201600101808054600181600116156101000203166002900480601f0160208091040260200160405190810160405280929190818152602001828054600181600116156101000203166002900480156104975780601f1061046c57610100808354040283529160200191610497565b820191906000526020600020905b81548152906001019060200180831161047a57829003601f168201915b505050505090509250925050915091565b60006104b383610522565b905081600082815481106104c357fe5b906000526020600020906002020160010190805190602001906104e792919061067c565b507fdf9ab33a468c78651dd860c5146e077928aad7deca2b2e4f868b28e5f4b3ef5f604051610515906109eb565b60405180910390a1505050565b600080600090505b60008054905081101561057357826000828154811061054557fe5b906000526020600020906002020160000154141561056657809150506105af565b808060010191505061052a565b506040517f08c379a00000000000000000000000000000000000000000000000000000000081526004016105a690610a2b565b60405180910390fd5b919050565b50805460018160011615610100020316600290046000825580601f106105da57506105f9565b601f0160209004906000526020600020908101906105f891906106fc565b5b50565b828054600181600116156101000203166002900490600052602060002090601f016020900481019282601f1061063d57805160ff191683800117855561066b565b8280016001018555821561066b579182015b8281111561066a57825182559160200191906001019061064f565b5b50905061067891906106fc565b5090565b828054600181600116156101000203166002900490600052602060002090601f016020900481019282601f106106bd57805160ff19168380011785556106eb565b828001600101855582156106eb579182015b828111156106ea5782518255916020019190600101906106cf565b5b5090506106f891906106fc565b5090565b61071e91905b8082111561071a576000816000905550600101610702565b5090565b90565b600082601f83011261073257600080fd5b813561074561074082610b13565b610ae6565b9150808252602083016020830185838301111561076157600080fd5b61076c838284610b70565b50505092915050565b60008135905061078481610bc3565b92915050565b60006020828403121561079c57600080fd5b600082013567ffffffffffffffff8111156107b657600080fd5b6107c284828501610721565b91505092915050565b6000602082840312156107dd57600080fd5b60006107eb84828501610775565b91505092915050565b6000806040838503121561080757600080fd5b600061081585828601610775565b925050602083013567ffffffffffffffff81111561083257600080fd5b61083e85828601610721565b9150509250929050565b600061085382610b4a565b61085d8185610b55565b935061086d818560208601610b7f565b61087681610bb2565b840191505092915050565b600061088c82610b3f565b6108968185610b55565b93506108a6818560208601610b7f565b6108af81610bb2565b840191505092915050565b60006108c7601983610b55565b91507f557365722075706461746564207375636365737366756c6c79000000000000006000830152602082019050919050565b6000610907601983610b55565b91507f557365722063726561746564207375636365737366756c6c79000000000000006000830152602082019050919050565b6000610947601483610b55565b91507f5573657220646f6573206e6f74206578697374210000000000000000000000006000830152602082019050919050565b6000610987601983610b55565b91507f557365722064656c65746564207375636365737366756c6c79000000000000006000830152602082019050919050565b6109c381610b66565b82525050565b600060208201905081810360008301526109e38184610848565b905092915050565b60006020820190508181036000830152610a04816108ba565b9050919050565b60006020820190508181036000830152610a24816108fa565b9050919050565b60006020820190508181036000830152610a448161093a565b9050919050565b60006020820190508181036000830152610a648161097a565b9050919050565b6000602082019050610a8060008301846109ba565b92915050565b6000604082019050610a9b60008301856109ba565b8181036020830152610aad8184610881565b90509392505050565b6000604082019050610acb60008301856109ba565b8181036020830152610add8184610848565b90509392505050565b6000604051905081810181811067ffffffffffffffff82111715610b0957600080fd5b8060405250919050565b600067ffffffffffffffff821115610b2a57600080fd5b601f19601f8301169050602081019050919050565b600081519050919050565b600081519050919050565b600082825260208201905092915050565b6000819050919050565b82818337600083830152505050565b60005b83811015610b9d578082015181840152602081019050610b82565b83811115610bac576000848401525b50505050565b6000601f19601f8301169050919050565b610bcc81610b66565b8114610bd757600080fd5b5056fea365627a7a72315820a63848468b6b08917ec7d2362da512ebe4fbdffd9f8880d260538c4cda815f196c6578706572696d656e74616cf564736f6c63430005100040",
  "source": "// SPDX-License-Identifier: MIT\npragma solidity >=0.4.21 <0.7.0;\npragma experimental ABIEncoderV2;\n\ncontract Crud {\n    event UserEvent(string _message);\n    struct User {\n        uint id;\n        string name;\n    }\n    User[] public users;\n    uint public nextId = 1;\n\n    // function getUsers() view public returns(User[] memory){\n    function getAllUsers() view public returns(string memory){\n      return 'hello';\n    }\n\n    function create(string memory name) public {\n        users.push(User(nextId, name));\n        nextId++;\n        emit UserEvent('User created successfully');\n    }\n\n  function read(uint id) view public returns(uint, string memory) {\n    uint i = find(id);\n    return(users[i].id, users[i].name);\n  }\n\n    function update(uint id, string memory name) public {\n        uint i = find(id);\n        users[i].name = name;\n        emit UserEvent('User updated successfully');\n    }\n\n    function destroy(uint id) public {\n        uint i = find(id);\n        delete users[i];\n        emit UserEvent('User deleted successfully');\n    }\n\n    function find(uint id) view internal returns(uint) {\n        for(uint i = 0; i < users.length; i++) {\n            if(users[i].id == id) {\n              return i;\n            }\n        }\n        revert('User does not exist!');\n    }\n}\n",
  "sourcePath": "/var/www/html/eattheblocks-pro-master/vueDap30/day5_crud/contracts/Crud.sol",
  "compiler": {
    "name": "solc",
    "version": "0.5.16+commit.9c3226ce.Emscripten.clang"
  },
  "schemaVersion": "3.2.5",
  "updatedAt": "2021-01-18T10:00:56.304Z",
  "networkType": "ethereum",
  "devdoc": {
    "methods": {}
  },
  "userdoc": {
    "methods": {}
  }
}